{
  "_format": "hh-sol-artifact-1",
  "contractName": "ProjectFair",
  "sourceName": "contracts/Project.sol",
  "abi": [
    {
      "inputs": [],
      "stateMutability": "nonpayable",
      "type": "constructor"
    },
    {
      "anonymous": false,
      "inputs": [
        {
          "indexed": true,
          "internalType": "address",
          "name": "user",
          "type": "address"
        },
        {
          "indexed": false,
          "internalType": "enum ProjectFair.Role",
          "name": "role",
          "type": "uint8"
        }
      ],
      "name": "Registered",
      "type": "event"
    },
    {
      "inputs": [],
      "name": "admin",
      "outputs": [
        {
          "internalType": "address",
          "name": "",
          "type": "address"
        }
      ],
      "stateMutability": "view",
      "type": "function"
    },
    {
      "inputs": [],
      "name": "getProjects",
      "outputs": [
        {
          "components": [
            {
              "internalType": "uint256",
              "name": "id",
              "type": "uint256"
            },
            {
              "internalType": "address",
              "name": "creator",
              "type": "address"
            },
            {
              "internalType": "string",
              "name": "title",
              "type": "string"
            },
            {
              "internalType": "string",
              "name": "description",
              "type": "string"
            },
            {
              "internalType": "uint256",
              "name": "votes",
              "type": "uint256"
            },
            {
              "internalType": "string",
              "name": "img",
              "type": "string"
            }
          ],
          "internalType": "struct ProjectFair.Project[]",
          "name": "",
          "type": "tuple[]"
        }
      ],
      "stateMutability": "view",
      "type": "function"
    },
    {
      "inputs": [
        {
          "internalType": "uint256",
          "name": "",
          "type": "uint256"
        }
      ],
      "name": "projects",
      "outputs": [
        {
          "internalType": "uint256",
          "name": "id",
          "type": "uint256"
        },
        {
          "internalType": "address",
          "name": "creator",
          "type": "address"
        },
        {
          "internalType": "string",
          "name": "title",
          "type": "string"
        },
        {
          "internalType": "string",
          "name": "description",
          "type": "string"
        },
        {
          "internalType": "uint256",
          "name": "votes",
          "type": "uint256"
        },
        {
          "internalType": "string",
          "name": "img",
          "type": "string"
        }
      ],
      "stateMutability": "view",
      "type": "function"
    },
    {
      "inputs": [
        {
          "internalType": "enum ProjectFair.Role",
          "name": "role",
          "type": "uint8"
        }
      ],
      "name": "register",
      "outputs": [],
      "stateMutability": "nonpayable",
      "type": "function"
    },
    {
      "inputs": [
        {
          "internalType": "address",
          "name": "",
          "type": "address"
        }
      ],
      "name": "roles",
      "outputs": [
        {
          "internalType": "enum ProjectFair.Role",
          "name": "",
          "type": "uint8"
        }
      ],
      "stateMutability": "view",
      "type": "function"
    },
    {
      "inputs": [
        {
          "internalType": "string",
          "name": "_title",
          "type": "string"
        },
        {
          "internalType": "string",
          "name": "_description",
          "type": "string"
        },
        {
          "internalType": "string",
          "name": "_img",
          "type": "string"
        }
      ],
      "name": "submitProject",
      "outputs": [],
      "stateMutability": "nonpayable",
      "type": "function"
    },
    {
      "inputs": [
        {
          "internalType": "uint256",
          "name": "projectId",
          "type": "uint256"
        }
      ],
      "name": "vote",
      "outputs": [],
      "stateMutability": "nonpayable",
      "type": "function"
    }
  ],
  "bytecode": "0x6080604052348015600f57600080fd5b5033600160006101000a81548173ffffffffffffffffffffffffffffffffffffffff021916908373ffffffffffffffffffffffffffffffffffffffff160217905550611757806100606000396000f3fe608060405234801561001057600080fd5b506004361061007d5760003560e01c8063993746421161005b57806399374642146100ef578063a26cc6051461011f578063dcc601281461013b578063f851a440146101595761007d565b80630121b93f14610082578063107046bd1461009e57806361d689fa146100d3575b600080fd5b61009c60048036038101906100979190610b67565b610177565b005b6100b860048036038101906100b39190610b67565b6102b2565b6040516100ca96959493929190610c74565b60405180910390f35b6100ed60048036038101906100e89190610d0f565b6104b6565b005b61010960048036038101906101049190610d68565b610686565b6040516101169190610e0c565b60405180910390f35b61013960048036038101906101349190610f5c565b6106a6565b005b610143610878565b60405161015091906111c4565b60405180910390f35b610161610af7565b60405161016e91906111e6565b60405180910390f35b600280600281111561018c5761018b610d95565b5b6000803373ffffffffffffffffffffffffffffffffffffffff1673ffffffffffffffffffffffffffffffffffffffff16815260200190815260200160002060009054906101000a900460ff1660028111156101ea576101e9610d95565b5b1461022a576040517f08c379a00000000000000000000000000000000000000000000000000000000081526004016102219061124d565b60405180910390fd5b6002805490508210610271576040517f08c379a0000000000000000000000000000000000000000000000000000000008152600401610268906112b9565b60405180910390fd5b600160028381548110610287576102866112d9565b5b906000526020600020906006020160040160008282546102a79190611337565b925050819055505050565b600281815481106102c257600080fd5b90600052602060002090600602016000915090508060000154908060010160009054906101000a900473ffffffffffffffffffffffffffffffffffffffff16908060020180546103119061139a565b80601f016020809104026020016040519081016040528092919081815260200182805461033d9061139a565b801561038a5780601f1061035f5761010080835404028352916020019161038a565b820191906000526020600020905b81548152906001019060200180831161036d57829003601f168201915b50505050509080600301805461039f9061139a565b80601f01602080910402602001604051908101604052809291908181526020018280546103cb9061139a565b80156104185780601f106103ed57610100808354040283529160200191610418565b820191906000526020600020905b8154815290600101906020018083116103fb57829003601f168201915b5050505050908060040154908060050180546104339061139a565b80601f016020809104026020016040519081016040528092919081815260200182805461045f9061139a565b80156104ac5780601f10610481576101008083540402835291602001916104ac565b820191906000526020600020905b81548152906001019060200180831161048f57829003601f168201915b5050505050905086565b600060028111156104ca576104c9610d95565b5b6000803373ffffffffffffffffffffffffffffffffffffffff1673ffffffffffffffffffffffffffffffffffffffff16815260200190815260200160002060009054906101000a900460ff16600281111561052857610527610d95565b5b14610568576040517f08c379a000000000000000000000000000000000000000000000000000000000815260040161055f90611417565b60405180910390fd5b6000600281111561057c5761057b610d95565b5b81600281111561058f5761058e610d95565b5b036105cf576040517f08c379a00000000000000000000000000000000000000000000000000000000081526004016105c690611483565b60405180910390fd5b806000803373ffffffffffffffffffffffffffffffffffffffff1673ffffffffffffffffffffffffffffffffffffffff16815260200190815260200160002060006101000a81548160ff021916908360028111156106305761062f610d95565b5b02179055503373ffffffffffffffffffffffffffffffffffffffff167f89b4e995568c900aa52376cbed225dc1a013c9a43cb58186d69676ff593d7c4e8260405161067b9190610e0c565b60405180910390a250565b60006020528060005260406000206000915054906101000a900460ff1681565b60018060028111156106bb576106ba610d95565b5b6000803373ffffffffffffffffffffffffffffffffffffffff1673ffffffffffffffffffffffffffffffffffffffff16815260200190815260200160002060009054906101000a900460ff16600281111561071957610718610d95565b5b14610759576040517f08c379a00000000000000000000000000000000000000000000000000000000081526004016107509061124d565b60405180910390fd5b6000600280549050905060026040518060c001604052808381526020013373ffffffffffffffffffffffffffffffffffffffff168152602001878152602001868152602001600081526020018581525090806001815401808255809150506001900390600052602060002090600602016000909190919091506000820151816000015560208201518160010160006101000a81548173ffffffffffffffffffffffffffffffffffffffff021916908373ffffffffffffffffffffffffffffffffffffffff1602179055506040820151816002019081610838919061164f565b50606082015181600301908161084e919061164f565b506080820151816004015560a082015181600501908161086e919061164f565b5050505050505050565b60606002805480602002602001604051908101604052809291908181526020016000905b82821015610aee57838290600052602060002090600602016040518060c0016040529081600082015481526020016001820160009054906101000a900473ffffffffffffffffffffffffffffffffffffffff1673ffffffffffffffffffffffffffffffffffffffff1673ffffffffffffffffffffffffffffffffffffffff16815260200160028201805461092f9061139a565b80601f016020809104026020016040519081016040528092919081815260200182805461095b9061139a565b80156109a85780601f1061097d576101008083540402835291602001916109a8565b820191906000526020600020905b81548152906001019060200180831161098b57829003601f168201915b505050505081526020016003820180546109c19061139a565b80601f01602080910402602001604051908101604052809291908181526020018280546109ed9061139a565b8015610a3a5780601f10610a0f57610100808354040283529160200191610a3a565b820191906000526020600020905b815481529060010190602001808311610a1d57829003601f168201915b5050505050815260200160048201548152602001600582018054610a5d9061139a565b80601f0160208091040260200160405190810160405280929190818152602001828054610a899061139a565b8015610ad65780601f10610aab57610100808354040283529160200191610ad6565b820191906000526020600020905b815481529060010190602001808311610ab957829003601f168201915b5050505050815250508152602001906001019061089c565b50505050905090565b600160009054906101000a900473ffffffffffffffffffffffffffffffffffffffff1681565b6000604051905090565b600080fd5b600080fd5b6000819050919050565b610b4481610b31565b8114610b4f57600080fd5b50565b600081359050610b6181610b3b565b92915050565b600060208284031215610b7d57610b7c610b27565b5b6000610b8b84828501610b52565b91505092915050565b610b9d81610b31565b82525050565b600073ffffffffffffffffffffffffffffffffffffffff82169050919050565b6000610bce82610ba3565b9050919050565b610bde81610bc3565b82525050565b600081519050919050565b600082825260208201905092915050565b60005b83811015610c1e578082015181840152602081019050610c03565b60008484015250505050565b6000601f19601f8301169050919050565b6000610c4682610be4565b610c508185610bef565b9350610c60818560208601610c00565b610c6981610c2a565b840191505092915050565b600060c082019050610c896000830189610b94565b610c966020830188610bd5565b8181036040830152610ca88187610c3b565b90508181036060830152610cbc8186610c3b565b9050610ccb6080830185610b94565b81810360a0830152610cdd8184610c3b565b9050979650505050505050565b60038110610cf757600080fd5b50565b600081359050610d0981610cea565b92915050565b600060208284031215610d2557610d24610b27565b5b6000610d3384828501610cfa565b91505092915050565b610d4581610bc3565b8114610d5057600080fd5b50565b600081359050610d6281610d3c565b92915050565b600060208284031215610d7e57610d7d610b27565b5b6000610d8c84828501610d53565b91505092915050565b7f4e487b7100000000000000000000000000000000000000000000000000000000600052602160045260246000fd5b60038110610dd557610dd4610d95565b5b50565b6000819050610de682610dc4565b919050565b6000610df682610dd8565b9050919050565b610e0681610deb565b82525050565b6000602082019050610e216000830184610dfd565b92915050565b600080fd5b600080fd5b7f4e487b7100000000000000000000000000000000000000000000000000000000600052604160045260246000fd5b610e6982610c2a565b810181811067ffffffffffffffff82111715610e8857610e87610e31565b5b80604052505050565b6000610e9b610b1d565b9050610ea78282610e60565b919050565b600067ffffffffffffffff821115610ec757610ec6610e31565b5b610ed082610c2a565b9050602081019050919050565b82818337600083830152505050565b6000610eff610efa84610eac565b610e91565b905082815260208101848484011115610f1b57610f1a610e2c565b5b610f26848285610edd565b509392505050565b600082601f830112610f4357610f42610e27565b5b8135610f53848260208601610eec565b91505092915050565b600080600060608486031215610f7557610f74610b27565b5b600084013567ffffffffffffffff811115610f9357610f92610b2c565b5b610f9f86828701610f2e565b935050602084013567ffffffffffffffff811115610fc057610fbf610b2c565b5b610fcc86828701610f2e565b925050604084013567ffffffffffffffff811115610fed57610fec610b2c565b5b610ff986828701610f2e565b9150509250925092565b600081519050919050565b600082825260208201905092915050565b6000819050602082019050919050565b61103881610b31565b82525050565b61104781610bc3565b82525050565b600082825260208201905092915050565b600061106982610be4565b611073818561104d565b9350611083818560208601610c00565b61108c81610c2a565b840191505092915050565b600060c0830160008301516110af600086018261102f565b5060208301516110c2602086018261103e565b50604083015184820360408601526110da828261105e565b915050606083015184820360608601526110f4828261105e565b9150506080830151611109608086018261102f565b5060a083015184820360a0860152611121828261105e565b9150508091505092915050565b600061113a8383611097565b905092915050565b6000602082019050919050565b600061115a82611003565b611164818561100e565b9350836020820285016111768561101f565b8060005b858110156111b25784840389528151611193858261112e565b945061119e83611142565b925060208a0199505060018101905061117a565b50829750879550505050505092915050565b600060208201905081810360008301526111de818461114f565b905092915050565b60006020820190506111fb6000830184610bd5565b92915050565b7f4e6f7420617574686f72697a6564000000000000000000000000000000000000600082015250565b6000611237600e83610bef565b915061124282611201565b602082019050919050565b600060208201905081810360008301526112668161122a565b9050919050565b7f496e76616c69642070726f6a6563742049440000000000000000000000000000600082015250565b60006112a3601283610bef565b91506112ae8261126d565b602082019050919050565b600060208201905081810360008301526112d281611296565b9050919050565b7f4e487b7100000000000000000000000000000000000000000000000000000000600052603260045260246000fd5b7f4e487b7100000000000000000000000000000000000000000000000000000000600052601160045260246000fd5b600061134282610b31565b915061134d83610b31565b925082820190508082111561136557611364611308565b5b92915050565b7f4e487b7100000000000000000000000000000000000000000000000000000000600052602260045260246000fd5b600060028204905060018216806113b257607f821691505b6020821081036113c5576113c461136b565b5b50919050565b7f416c726561647920726567697374657265640000000000000000000000000000600082015250565b6000611401601283610bef565b915061140c826113cb565b602082019050919050565b60006020820190508181036000830152611430816113f4565b9050919050565b7f496e76616c696420726f6c650000000000000000000000000000000000000000600082015250565b600061146d600c83610bef565b915061147882611437565b602082019050919050565b6000602082019050818103600083015261149c81611460565b9050919050565b60008190508160005260206000209050919050565b60006020601f8301049050919050565b600082821b905092915050565b6000600883026115057fffffffffffffffffffffffffffffffffffffffffffffffffffffffffffffffff826114c8565b61150f86836114c8565b95508019841693508086168417925050509392505050565b6000819050919050565b600061154c61154761154284610b31565b611527565b610b31565b9050919050565b6000819050919050565b61156683611531565b61157a61157282611553565b8484546114d5565b825550505050565b600090565b61158f611582565b61159a81848461155d565b505050565b5b818110156115be576115b3600082611587565b6001810190506115a0565b5050565b601f821115611603576115d4816114a3565b6115dd846114b8565b810160208510156115ec578190505b6116006115f8856114b8565b83018261159f565b50505b505050565b600082821c905092915050565b600061162660001984600802611608565b1980831691505092915050565b600061163f8383611615565b9150826002028217905092915050565b61165882610be4565b67ffffffffffffffff81111561167157611670610e31565b5b61167b825461139a565b6116868282856115c2565b600060209050601f8311600181146116b957600084156116a7578287015190505b6116b18582611633565b865550611719565b601f1984166116c7866114a3565b60005b828110156116ef578489015182556001820191506020850194506020810190506116ca565b8683101561170c5784890151611708601f891682611615565b8355505b6001600288020188555050505b50505050505056fea2646970667358221220af60fa454d4bdd1512ba68f6dcfecf22992d35faa51fe33581bc0901316f5af364736f6c634300081c0033",
  "linkReferences": {},
  "deployedLinkReferences": {}
}