{
  "_format": "hh-sol-artifact-1",
  "contractName": "ProjectFair",
  "sourceName": "contracts/Project.sol",
  "abi": [
    {
      "inputs": [],
      "stateMutability": "nonpayable",
      "type": "constructor"
    },
    {
      "anonymous": false,
      "inputs": [
        {
          "indexed": true,
          "internalType": "address",
          "name": "user",
          "type": "address"
        }
      ],
      "name": "RegisteredAsStudent",
      "type": "event"
    },
    {
      "anonymous": false,
      "inputs": [
        {
          "indexed": true,
          "internalType": "address",
          "name": "user",
          "type": "address"
        }
      ],
      "name": "RegisteredAsVisitor",
      "type": "event"
    },
    {
      "inputs": [],
      "name": "admin",
      "outputs": [
        {
          "internalType": "address",
          "name": "",
          "type": "address"
        }
      ],
      "stateMutability": "view",
      "type": "function"
    },
    {
      "inputs": [],
      "name": "getProjects",
      "outputs": [
        {
          "components": [
            {
              "internalType": "uint256",
              "name": "id",
              "type": "uint256"
            },
            {
              "internalType": "address",
              "name": "creator",
              "type": "address"
            },
            {
              "internalType": "string",
              "name": "title",
              "type": "string"
            },
            {
              "internalType": "string",
              "name": "description",
              "type": "string"
            },
            {
              "internalType": "string",
              "name": "img",
              "type": "string"
            },
            {
              "internalType": "uint256",
              "name": "votes",
              "type": "uint256"
            }
          ],
          "internalType": "struct ProjectFair.Project[]",
          "name": "",
          "type": "tuple[]"
        }
      ],
      "stateMutability": "view",
      "type": "function"
    },
    {
      "inputs": [
        {
          "internalType": "uint256",
          "name": "",
          "type": "uint256"
        }
      ],
      "name": "projects",
      "outputs": [
        {
          "internalType": "uint256",
          "name": "id",
          "type": "uint256"
        },
        {
          "internalType": "address",
          "name": "creator",
          "type": "address"
        },
        {
          "internalType": "string",
          "name": "title",
          "type": "string"
        },
        {
          "internalType": "string",
          "name": "description",
          "type": "string"
        },
        {
          "internalType": "string",
          "name": "img",
          "type": "string"
        },
        {
          "internalType": "uint256",
          "name": "votes",
          "type": "uint256"
        }
      ],
      "stateMutability": "view",
      "type": "function"
    },
    {
      "inputs": [],
      "name": "registerAsStudent",
      "outputs": [],
      "stateMutability": "nonpayable",
      "type": "function"
    },
    {
      "inputs": [],
      "name": "registerAsVisitor",
      "outputs": [],
      "stateMutability": "nonpayable",
      "type": "function"
    },
    {
      "inputs": [
        {
          "internalType": "address",
          "name": "",
          "type": "address"
        }
      ],
      "name": "students",
      "outputs": [
        {
          "internalType": "bool",
          "name": "",
          "type": "bool"
        }
      ],
      "stateMutability": "view",
      "type": "function"
    },
    {
      "inputs": [
        {
          "internalType": "string",
          "name": "_title",
          "type": "string"
        },
        {
          "internalType": "string",
          "name": "_description",
          "type": "string"
        },
        {
          "internalType": "string",
          "name": "_img",
          "type": "string"
        }
      ],
      "name": "submitProject",
      "outputs": [],
      "stateMutability": "nonpayable",
      "type": "function"
    },
    {
      "inputs": [
        {
          "internalType": "address",
          "name": "",
          "type": "address"
        }
      ],
      "name": "visitors",
      "outputs": [
        {
          "internalType": "bool",
          "name": "",
          "type": "bool"
        }
      ],
      "stateMutability": "view",
      "type": "function"
    },
    {
      "inputs": [
        {
          "internalType": "uint256",
          "name": "projectId",
          "type": "uint256"
        }
      ],
      "name": "vote",
      "outputs": [],
      "stateMutability": "nonpayable",
      "type": "function"
    }
  ],
  "bytecode": "0x6080604052348015600f57600080fd5b5033600260006101000a81548173ffffffffffffffffffffffffffffffffffffffff021916908373ffffffffffffffffffffffffffffffffffffffff1602179055506117aa806100606000396000f3fe608060405234801561001057600080fd5b50600436106100935760003560e01c8063a26cc60511610066578063a26cc60514610123578063a6c807a91461013f578063b32dd6a21461016f578063dcc6012814610179578063f851a4401461019757610093565b80630121b93f146100985780630d0ea0c6146100b4578063107046bd146100e45780635457f38514610119575b600080fd5b6100b260048036038101906100ad9190610bfc565b6101b5565b005b6100ce60048036038101906100c99190610c87565b6102c8565b6040516100db9190610ccf565b60405180910390f35b6100fe60048036038101906100f99190610bfc565b6102e8565b60405161011096959493929190610d98565b60405180910390f35b6101216104ec565b005b61013d60048036038101906101389190610f43565b610618565b005b61015960048036038101906101549190610c87565b6107c1565b6040516101669190610ccf565b60405180910390f35b6101776107e1565b005b61018161090d565b60405161018e91906111ab565b60405180910390f35b61019f610b8c565b6040516101ac91906111cd565b60405180910390f35b600160003373ffffffffffffffffffffffffffffffffffffffff1673ffffffffffffffffffffffffffffffffffffffff16815260200190815260200160002060009054906101000a900460ff16610241576040517f08c379a000000000000000000000000000000000000000000000000000000000815260040161023890611234565b60405180910390fd5b6003805490508110610288576040517f08c379a000000000000000000000000000000000000000000000000000000000815260040161027f906112a0565b60405180910390fd5b60016003828154811061029e5761029d6112c0565b5b906000526020600020906006020160050160008282546102be919061131e565b9250508190555050565b60016020528060005260406000206000915054906101000a900460ff1681565b600381815481106102f857600080fd5b90600052602060002090600602016000915090508060000154908060010160009054906101000a900473ffffffffffffffffffffffffffffffffffffffff169080600201805461034790611381565b80601f016020809104026020016040519081016040528092919081815260200182805461037390611381565b80156103c05780601f10610395576101008083540402835291602001916103c0565b820191906000526020600020905b8154815290600101906020018083116103a357829003601f168201915b5050505050908060030180546103d590611381565b80601f016020809104026020016040519081016040528092919081815260200182805461040190611381565b801561044e5780601f106104235761010080835404028352916020019161044e565b820191906000526020600020905b81548152906001019060200180831161043157829003601f168201915b50505050509080600401805461046390611381565b80601f016020809104026020016040519081016040528092919081815260200182805461048f90611381565b80156104dc5780601f106104b1576101008083540402835291602001916104dc565b820191906000526020600020905b8154815290600101906020018083116104bf57829003601f168201915b5050505050908060050154905086565b600260009054906101000a900473ffffffffffffffffffffffffffffffffffffffff1673ffffffffffffffffffffffffffffffffffffffff163373ffffffffffffffffffffffffffffffffffffffff160361057c576040517f08c379a0000000000000000000000000000000000000000000000000000000008152600401610573906113fe565b60405180910390fd5b60018060003373ffffffffffffffffffffffffffffffffffffffff1673ffffffffffffffffffffffffffffffffffffffff16815260200190815260200160002060006101000a81548160ff0219169083151502179055503373ffffffffffffffffffffffffffffffffffffffff167f8092dc9a2fe460d7f2649c88a9eb3078ad2c70e75020c33fe3f134936e903b0060405160405180910390a2565b6000803373ffffffffffffffffffffffffffffffffffffffff1673ffffffffffffffffffffffffffffffffffffffff16815260200190815260200160002060009054906101000a900460ff166106a3576040517f08c379a000000000000000000000000000000000000000000000000000000000815260040161069a9061146a565b60405180910390fd5b6000600380549050905060036040518060c001604052808381526020013373ffffffffffffffffffffffffffffffffffffffff168152602001868152602001858152602001848152602001600081525090806001815401808255809150506001900390600052602060002090600602016000909190919091506000820151816000015560208201518160010160006101000a81548173ffffffffffffffffffffffffffffffffffffffff021916908373ffffffffffffffffffffffffffffffffffffffff16021790555060408201518160020190816107829190611636565b5060608201518160030190816107989190611636565b5060808201518160040190816107ae9190611636565b5060a08201518160050155505050505050565b60006020528060005260406000206000915054906101000a900460ff1681565b600260009054906101000a900473ffffffffffffffffffffffffffffffffffffffff1673ffffffffffffffffffffffffffffffffffffffff163373ffffffffffffffffffffffffffffffffffffffff1603610871576040517f08c379a000000000000000000000000000000000000000000000000000000000815260040161086890611754565b60405180910390fd5b60016000803373ffffffffffffffffffffffffffffffffffffffff1673ffffffffffffffffffffffffffffffffffffffff16815260200190815260200160002060006101000a81548160ff0219169083151502179055503373ffffffffffffffffffffffffffffffffffffffff167f52276bd6578a82879d498bfde61ff8779b4a757ae6f91b02baf83690fe69aa4c60405160405180910390a2565b60606003805480602002602001604051908101604052809291908181526020016000905b82821015610b8357838290600052602060002090600602016040518060c0016040529081600082015481526020016001820160009054906101000a900473ffffffffffffffffffffffffffffffffffffffff1673ffffffffffffffffffffffffffffffffffffffff1673ffffffffffffffffffffffffffffffffffffffff1681526020016002820180546109c490611381565b80601f01602080910402602001604051908101604052809291908181526020018280546109f090611381565b8015610a3d5780601f10610a1257610100808354040283529160200191610a3d565b820191906000526020600020905b815481529060010190602001808311610a2057829003601f168201915b50505050508152602001600382018054610a5690611381565b80601f0160208091040260200160405190810160405280929190818152602001828054610a8290611381565b8015610acf5780601f10610aa457610100808354040283529160200191610acf565b820191906000526020600020905b815481529060010190602001808311610ab257829003601f168201915b50505050508152602001600482018054610ae890611381565b80601f0160208091040260200160405190810160405280929190818152602001828054610b1490611381565b8015610b615780601f10610b3657610100808354040283529160200191610b61565b820191906000526020600020905b815481529060010190602001808311610b4457829003601f168201915b5050505050815260200160058201548152505081526020019060010190610931565b50505050905090565b600260009054906101000a900473ffffffffffffffffffffffffffffffffffffffff1681565b6000604051905090565b600080fd5b600080fd5b6000819050919050565b610bd981610bc6565b8114610be457600080fd5b50565b600081359050610bf681610bd0565b92915050565b600060208284031215610c1257610c11610bbc565b5b6000610c2084828501610be7565b91505092915050565b600073ffffffffffffffffffffffffffffffffffffffff82169050919050565b6000610c5482610c29565b9050919050565b610c6481610c49565b8114610c6f57600080fd5b50565b600081359050610c8181610c5b565b92915050565b600060208284031215610c9d57610c9c610bbc565b5b6000610cab84828501610c72565b91505092915050565b60008115159050919050565b610cc981610cb4565b82525050565b6000602082019050610ce46000830184610cc0565b92915050565b610cf381610bc6565b82525050565b610d0281610c49565b82525050565b600081519050919050565b600082825260208201905092915050565b60005b83811015610d42578082015181840152602081019050610d27565b60008484015250505050565b6000601f19601f8301169050919050565b6000610d6a82610d08565b610d748185610d13565b9350610d84818560208601610d24565b610d8d81610d4e565b840191505092915050565b600060c082019050610dad6000830189610cea565b610dba6020830188610cf9565b8181036040830152610dcc8187610d5f565b90508181036060830152610de08186610d5f565b90508181036080830152610df48185610d5f565b9050610e0360a0830184610cea565b979650505050505050565b600080fd5b600080fd5b7f4e487b7100000000000000000000000000000000000000000000000000000000600052604160045260246000fd5b610e5082610d4e565b810181811067ffffffffffffffff82111715610e6f57610e6e610e18565b5b80604052505050565b6000610e82610bb2565b9050610e8e8282610e47565b919050565b600067ffffffffffffffff821115610eae57610ead610e18565b5b610eb782610d4e565b9050602081019050919050565b82818337600083830152505050565b6000610ee6610ee184610e93565b610e78565b905082815260208101848484011115610f0257610f01610e13565b5b610f0d848285610ec4565b509392505050565b600082601f830112610f2a57610f29610e0e565b5b8135610f3a848260208601610ed3565b91505092915050565b600080600060608486031215610f5c57610f5b610bbc565b5b600084013567ffffffffffffffff811115610f7a57610f79610bc1565b5b610f8686828701610f15565b935050602084013567ffffffffffffffff811115610fa757610fa6610bc1565b5b610fb386828701610f15565b925050604084013567ffffffffffffffff811115610fd457610fd3610bc1565b5b610fe086828701610f15565b9150509250925092565b600081519050919050565b600082825260208201905092915050565b6000819050602082019050919050565b61101f81610bc6565b82525050565b61102e81610c49565b82525050565b600082825260208201905092915050565b600061105082610d08565b61105a8185611034565b935061106a818560208601610d24565b61107381610d4e565b840191505092915050565b600060c0830160008301516110966000860182611016565b5060208301516110a96020860182611025565b50604083015184820360408601526110c18282611045565b915050606083015184820360608601526110db8282611045565b915050608083015184820360808601526110f58282611045565b91505060a083015161110a60a0860182611016565b508091505092915050565b6000611121838361107e565b905092915050565b6000602082019050919050565b600061114182610fea565b61114b8185610ff5565b93508360208202850161115d85611006565b8060005b85811015611199578484038952815161117a8582611115565b945061118583611129565b925060208a01995050600181019050611161565b50829750879550505050505092915050565b600060208201905081810360008301526111c58184611136565b905092915050565b60006020820190506111e26000830184610cf9565b92915050565b7f4e6f7420617574686f72697a65642061732076697369746f7200000000000000600082015250565b600061121e601983610d13565b9150611229826111e8565b602082019050919050565b6000602082019050818103600083015261124d81611211565b9050919050565b7f496e76616c69642070726f6a6563742049440000000000000000000000000000600082015250565b600061128a601283610d13565b915061129582611254565b602082019050919050565b600060208201905081810360008301526112b98161127d565b9050919050565b7f4e487b7100000000000000000000000000000000000000000000000000000000600052603260045260246000fd5b7f4e487b7100000000000000000000000000000000000000000000000000000000600052601160045260246000fd5b600061132982610bc6565b915061133483610bc6565b925082820190508082111561134c5761134b6112ef565b5b92915050565b7f4e487b7100000000000000000000000000000000000000000000000000000000600052602260045260246000fd5b6000600282049050600182168061139957607f821691505b6020821081036113ac576113ab611352565b5b50919050565b7f41646d696e2063616e6e6f742072656769737465722061732076697369746f72600082015250565b60006113e8602083610d13565b91506113f3826113b2565b602082019050919050565b60006020820190508181036000830152611417816113db565b9050919050565b7f4e6f7420617574686f72697a65642061732073747564656e7400000000000000600082015250565b6000611454601983610d13565b915061145f8261141e565b602082019050919050565b6000602082019050818103600083015261148381611447565b9050919050565b60008190508160005260206000209050919050565b60006020601f8301049050919050565b600082821b905092915050565b6000600883026114ec7fffffffffffffffffffffffffffffffffffffffffffffffffffffffffffffffff826114af565b6114f686836114af565b95508019841693508086168417925050509392505050565b6000819050919050565b600061153361152e61152984610bc6565b61150e565b610bc6565b9050919050565b6000819050919050565b61154d83611518565b6115616115598261153a565b8484546114bc565b825550505050565b600090565b611576611569565b611581818484611544565b505050565b5b818110156115a55761159a60008261156e565b600181019050611587565b5050565b601f8211156115ea576115bb8161148a565b6115c48461149f565b810160208510156115d3578190505b6115e76115df8561149f565b830182611586565b50505b505050565b600082821c905092915050565b600061160d600019846008026115ef565b1980831691505092915050565b600061162683836115fc565b9150826002028217905092915050565b61163f82610d08565b67ffffffffffffffff81111561165857611657610e18565b5b6116628254611381565b61166d8282856115a9565b600060209050601f8311600181146116a0576000841561168e578287015190505b611698858261161a565b865550611700565b601f1984166116ae8661148a565b60005b828110156116d6578489015182556001820191506020850194506020810190506116b1565b868310156116f357848901516116ef601f8916826115fc565b8355505b6001600288020188555050505b505050505050565b7f41646d696e2063616e6e6f742072656769737465722061732073747564656e74600082015250565b600061173e602083610d13565b915061174982611708565b602082019050919050565b6000602082019050818103600083015261176d81611731565b905091905056fea2646970667358221220a24644982bc93c46e95faf1922d6a85e7b6535670a3b82ae651af8a943515c2064736f6c634300081c0033",
  "linkReferences": {},
  "deployedLinkReferences": {}
}