{
  "_format": "hh-sol-artifact-1",
  "contractName": "ProjectFair",
  "sourceName": "contracts/Project.sol",
  "abi": [
    {
      "inputs": [],
      "stateMutability": "nonpayable",
      "type": "constructor"
    },
    {
      "anonymous": false,
      "inputs": [
        {
          "indexed": true,
          "internalType": "address",
          "name": "user",
          "type": "address"
        },
        {
          "indexed": false,
          "internalType": "enum ProjectFair.Role",
          "name": "role",
          "type": "uint8"
        }
      ],
      "name": "Registered",
      "type": "event"
    },
    {
      "inputs": [],
      "name": "admin",
      "outputs": [
        {
          "internalType": "address",
          "name": "",
          "type": "address"
        }
      ],
      "stateMutability": "view",
      "type": "function"
    },
    {
      "inputs": [],
      "name": "getProjects",
      "outputs": [
        {
          "components": [
            {
              "internalType": "uint256",
              "name": "id",
              "type": "uint256"
            },
            {
              "internalType": "address",
              "name": "creator",
              "type": "address"
            },
            {
              "internalType": "string",
              "name": "title",
              "type": "string"
            },
            {
              "internalType": "string",
              "name": "description",
              "type": "string"
            },
            {
              "internalType": "string",
              "name": "img",
              "type": "string"
            },
            {
              "internalType": "uint256",
              "name": "votes",
              "type": "uint256"
            }
          ],
          "internalType": "struct ProjectFair.Project[]",
          "name": "",
          "type": "tuple[]"
        }
      ],
      "stateMutability": "view",
      "type": "function"
    },
    {
      "inputs": [
        {
          "internalType": "uint256",
          "name": "",
          "type": "uint256"
        }
      ],
      "name": "projects",
      "outputs": [
        {
          "internalType": "uint256",
          "name": "id",
          "type": "uint256"
        },
        {
          "internalType": "address",
          "name": "creator",
          "type": "address"
        },
        {
          "internalType": "string",
          "name": "title",
          "type": "string"
        },
        {
          "internalType": "string",
          "name": "description",
          "type": "string"
        },
        {
          "internalType": "string",
          "name": "img",
          "type": "string"
        },
        {
          "internalType": "uint256",
          "name": "votes",
          "type": "uint256"
        }
      ],
      "stateMutability": "view",
      "type": "function"
    },
    {
      "inputs": [
        {
          "internalType": "enum ProjectFair.Role",
          "name": "role",
          "type": "uint8"
        }
      ],
      "name": "register",
      "outputs": [],
      "stateMutability": "nonpayable",
      "type": "function"
    },
    {
      "inputs": [
        {
          "internalType": "address",
          "name": "",
          "type": "address"
        }
      ],
      "name": "roles",
      "outputs": [
        {
          "internalType": "enum ProjectFair.Role",
          "name": "",
          "type": "uint8"
        }
      ],
      "stateMutability": "view",
      "type": "function"
    },
    {
      "inputs": [
        {
          "internalType": "string",
          "name": "_title",
          "type": "string"
        },
        {
          "internalType": "string",
          "name": "_description",
          "type": "string"
        },
        {
          "internalType": "string",
          "name": "_img",
          "type": "string"
        }
      ],
      "name": "submitProject",
      "outputs": [],
      "stateMutability": "nonpayable",
      "type": "function"
    },
    {
      "inputs": [
        {
          "internalType": "uint256",
          "name": "projectId",
          "type": "uint256"
        }
      ],
      "name": "vote",
      "outputs": [],
      "stateMutability": "nonpayable",
      "type": "function"
    }
  ],
  "bytecode": "0x6080604052348015600f57600080fd5b5033600160006101000a81548173ffffffffffffffffffffffffffffffffffffffff021916908373ffffffffffffffffffffffffffffffffffffffff160217905550611853806100606000396000f3fe608060405234801561001057600080fd5b506004361061007d5760003560e01c8063993746421161005b57806399374642146100ef578063a26cc6051461011f578063dcc601281461013b578063f851a440146101595761007d565b80630121b93f14610082578063107046bd1461009e57806361d689fa146100d3575b600080fd5b61009c60048036038101906100979190610bf7565b610177565b005b6100b860048036038101906100b39190610bf7565b6102b2565b6040516100ca96959493929190610d04565b60405180910390f35b6100ed60048036038101906100e89190610d9f565b6104b6565b005b61010960048036038101906101049190610df8565b610716565b6040516101169190610e9c565b60405180910390f35b61013960048036038101906101349190610fec565b610736565b005b610143610908565b6040516101509190611254565b60405180910390f35b610161610b87565b60405161016e9190611276565b60405180910390f35b600280600281111561018c5761018b610e25565b5b6000803373ffffffffffffffffffffffffffffffffffffffff1673ffffffffffffffffffffffffffffffffffffffff16815260200190815260200160002060009054906101000a900460ff1660028111156101ea576101e9610e25565b5b1461022a576040517f08c379a0000000000000000000000000000000000000000000000000000000008152600401610221906112dd565b60405180910390fd5b6002805490508210610271576040517f08c379a000000000000000000000000000000000000000000000000000000000815260040161026890611349565b60405180910390fd5b60016002838154811061028757610286611369565b5b906000526020600020906006020160050160008282546102a791906113c7565b925050819055505050565b600281815481106102c257600080fd5b90600052602060002090600602016000915090508060000154908060010160009054906101000a900473ffffffffffffffffffffffffffffffffffffffff16908060020180546103119061142a565b80601f016020809104026020016040519081016040528092919081815260200182805461033d9061142a565b801561038a5780601f1061035f5761010080835404028352916020019161038a565b820191906000526020600020905b81548152906001019060200180831161036d57829003601f168201915b50505050509080600301805461039f9061142a565b80601f01602080910402602001604051908101604052809291908181526020018280546103cb9061142a565b80156104185780601f106103ed57610100808354040283529160200191610418565b820191906000526020600020905b8154815290600101906020018083116103fb57829003601f168201915b50505050509080600401805461042d9061142a565b80601f01602080910402602001604051908101604052809291908181526020018280546104599061142a565b80156104a65780601f1061047b576101008083540402835291602001916104a6565b820191906000526020600020905b81548152906001019060200180831161048957829003601f168201915b5050505050908060050154905086565b600160009054906101000a900473ffffffffffffffffffffffffffffffffffffffff1673ffffffffffffffffffffffffffffffffffffffff163373ffffffffffffffffffffffffffffffffffffffff1603610546576040517f08c379a000000000000000000000000000000000000000000000000000000000815260040161053d906114a7565b60405180910390fd5b6000600281111561055a57610559610e25565b5b6000803373ffffffffffffffffffffffffffffffffffffffff1673ffffffffffffffffffffffffffffffffffffffff16815260200190815260200160002060009054906101000a900460ff1660028111156105b8576105b7610e25565b5b146105f8576040517f08c379a00000000000000000000000000000000000000000000000000000000081526004016105ef90611513565b60405180910390fd5b6000600281111561060c5761060b610e25565b5b81600281111561061f5761061e610e25565b5b0361065f576040517f08c379a00000000000000000000000000000000000000000000000000000000081526004016106569061157f565b60405180910390fd5b806000803373ffffffffffffffffffffffffffffffffffffffff1673ffffffffffffffffffffffffffffffffffffffff16815260200190815260200160002060006101000a81548160ff021916908360028111156106c0576106bf610e25565b5b02179055503373ffffffffffffffffffffffffffffffffffffffff167f89b4e995568c900aa52376cbed225dc1a013c9a43cb58186d69676ff593d7c4e8260405161070b9190610e9c565b60405180910390a250565b60006020528060005260406000206000915054906101000a900460ff1681565b600180600281111561074b5761074a610e25565b5b6000803373ffffffffffffffffffffffffffffffffffffffff1673ffffffffffffffffffffffffffffffffffffffff16815260200190815260200160002060009054906101000a900460ff1660028111156107a9576107a8610e25565b5b146107e9576040517f08c379a00000000000000000000000000000000000000000000000000000000081526004016107e0906112dd565b60405180910390fd5b6000600280549050905060026040518060c001604052808381526020013373ffffffffffffffffffffffffffffffffffffffff168152602001878152602001868152602001858152602001600081525090806001815401808255809150506001900390600052602060002090600602016000909190919091506000820151816000015560208201518160010160006101000a81548173ffffffffffffffffffffffffffffffffffffffff021916908373ffffffffffffffffffffffffffffffffffffffff16021790555060408201518160020190816108c8919061174b565b5060608201518160030190816108de919061174b565b5060808201518160040190816108f4919061174b565b5060a0820151816005015550505050505050565b60606002805480602002602001604051908101604052809291908181526020016000905b82821015610b7e57838290600052602060002090600602016040518060c0016040529081600082015481526020016001820160009054906101000a900473ffffffffffffffffffffffffffffffffffffffff1673ffffffffffffffffffffffffffffffffffffffff1673ffffffffffffffffffffffffffffffffffffffff1681526020016002820180546109bf9061142a565b80601f01602080910402602001604051908101604052809291908181526020018280546109eb9061142a565b8015610a385780601f10610a0d57610100808354040283529160200191610a38565b820191906000526020600020905b815481529060010190602001808311610a1b57829003601f168201915b50505050508152602001600382018054610a519061142a565b80601f0160208091040260200160405190810160405280929190818152602001828054610a7d9061142a565b8015610aca5780601f10610a9f57610100808354040283529160200191610aca565b820191906000526020600020905b815481529060010190602001808311610aad57829003601f168201915b50505050508152602001600482018054610ae39061142a565b80601f0160208091040260200160405190810160405280929190818152602001828054610b0f9061142a565b8015610b5c5780601f10610b3157610100808354040283529160200191610b5c565b820191906000526020600020905b815481529060010190602001808311610b3f57829003601f168201915b505050505081526020016005820154815250508152602001906001019061092c565b50505050905090565b600160009054906101000a900473ffffffffffffffffffffffffffffffffffffffff1681565b6000604051905090565b600080fd5b600080fd5b6000819050919050565b610bd481610bc1565b8114610bdf57600080fd5b50565b600081359050610bf181610bcb565b92915050565b600060208284031215610c0d57610c0c610bb7565b5b6000610c1b84828501610be2565b91505092915050565b610c2d81610bc1565b82525050565b600073ffffffffffffffffffffffffffffffffffffffff82169050919050565b6000610c5e82610c33565b9050919050565b610c6e81610c53565b82525050565b600081519050919050565b600082825260208201905092915050565b60005b83811015610cae578082015181840152602081019050610c93565b60008484015250505050565b6000601f19601f8301169050919050565b6000610cd682610c74565b610ce08185610c7f565b9350610cf0818560208601610c90565b610cf981610cba565b840191505092915050565b600060c082019050610d196000830189610c24565b610d266020830188610c65565b8181036040830152610d388187610ccb565b90508181036060830152610d4c8186610ccb565b90508181036080830152610d608185610ccb565b9050610d6f60a0830184610c24565b979650505050505050565b60038110610d8757600080fd5b50565b600081359050610d9981610d7a565b92915050565b600060208284031215610db557610db4610bb7565b5b6000610dc384828501610d8a565b91505092915050565b610dd581610c53565b8114610de057600080fd5b50565b600081359050610df281610dcc565b92915050565b600060208284031215610e0e57610e0d610bb7565b5b6000610e1c84828501610de3565b91505092915050565b7f4e487b7100000000000000000000000000000000000000000000000000000000600052602160045260246000fd5b60038110610e6557610e64610e25565b5b50565b6000819050610e7682610e54565b919050565b6000610e8682610e68565b9050919050565b610e9681610e7b565b82525050565b6000602082019050610eb16000830184610e8d565b92915050565b600080fd5b600080fd5b7f4e487b7100000000000000000000000000000000000000000000000000000000600052604160045260246000fd5b610ef982610cba565b810181811067ffffffffffffffff82111715610f1857610f17610ec1565b5b80604052505050565b6000610f2b610bad565b9050610f378282610ef0565b919050565b600067ffffffffffffffff821115610f5757610f56610ec1565b5b610f6082610cba565b9050602081019050919050565b82818337600083830152505050565b6000610f8f610f8a84610f3c565b610f21565b905082815260208101848484011115610fab57610faa610ebc565b5b610fb6848285610f6d565b509392505050565b600082601f830112610fd357610fd2610eb7565b5b8135610fe3848260208601610f7c565b91505092915050565b60008060006060848603121561100557611004610bb7565b5b600084013567ffffffffffffffff81111561102357611022610bbc565b5b61102f86828701610fbe565b935050602084013567ffffffffffffffff8111156110505761104f610bbc565b5b61105c86828701610fbe565b925050604084013567ffffffffffffffff81111561107d5761107c610bbc565b5b61108986828701610fbe565b9150509250925092565b600081519050919050565b600082825260208201905092915050565b6000819050602082019050919050565b6110c881610bc1565b82525050565b6110d781610c53565b82525050565b600082825260208201905092915050565b60006110f982610c74565b61110381856110dd565b9350611113818560208601610c90565b61111c81610cba565b840191505092915050565b600060c08301600083015161113f60008601826110bf565b50602083015161115260208601826110ce565b506040830151848203604086015261116a82826110ee565b9150506060830151848203606086015261118482826110ee565b9150506080830151848203608086015261119e82826110ee565b91505060a08301516111b360a08601826110bf565b508091505092915050565b60006111ca8383611127565b905092915050565b6000602082019050919050565b60006111ea82611093565b6111f4818561109e565b935083602082028501611206856110af565b8060005b85811015611242578484038952815161122385826111be565b945061122e836111d2565b925060208a0199505060018101905061120a565b50829750879550505050505092915050565b6000602082019050818103600083015261126e81846111df565b905092915050565b600060208201905061128b6000830184610c65565b92915050565b7f4e6f7420617574686f72697a6564000000000000000000000000000000000000600082015250565b60006112c7600e83610c7f565b91506112d282611291565b602082019050919050565b600060208201905081810360008301526112f6816112ba565b9050919050565b7f496e76616c69642070726f6a6563742049440000000000000000000000000000600082015250565b6000611333601283610c7f565b915061133e826112fd565b602082019050919050565b6000602082019050818103600083015261136281611326565b9050919050565b7f4e487b7100000000000000000000000000000000000000000000000000000000600052603260045260246000fd5b7f4e487b7100000000000000000000000000000000000000000000000000000000600052601160045260246000fd5b60006113d282610bc1565b91506113dd83610bc1565b92508282019050808211156113f5576113f4611398565b5b92915050565b7f4e487b7100000000000000000000000000000000000000000000000000000000600052602260045260246000fd5b6000600282049050600182168061144257607f821691505b602082108103611455576114546113fb565b5b50919050565b7f596f75206172652061646d696e00000000000000000000000000000000000000600082015250565b6000611491600d83610c7f565b915061149c8261145b565b602082019050919050565b600060208201905081810360008301526114c081611484565b9050919050565b7f416c726561647920726567697374657265640000000000000000000000000000600082015250565b60006114fd601283610c7f565b9150611508826114c7565b602082019050919050565b6000602082019050818103600083015261152c816114f0565b9050919050565b7f496e76616c696420726f6c650000000000000000000000000000000000000000600082015250565b6000611569600c83610c7f565b915061157482611533565b602082019050919050565b600060208201905081810360008301526115988161155c565b9050919050565b60008190508160005260206000209050919050565b60006020601f8301049050919050565b600082821b905092915050565b6000600883026116017fffffffffffffffffffffffffffffffffffffffffffffffffffffffffffffffff826115c4565b61160b86836115c4565b95508019841693508086168417925050509392505050565b6000819050919050565b600061164861164361163e84610bc1565b611623565b610bc1565b9050919050565b6000819050919050565b6116628361162d565b61167661166e8261164f565b8484546115d1565b825550505050565b600090565b61168b61167e565b611696818484611659565b505050565b5b818110156116ba576116af600082611683565b60018101905061169c565b5050565b601f8211156116ff576116d08161159f565b6116d9846115b4565b810160208510156116e8578190505b6116fc6116f4856115b4565b83018261169b565b50505b505050565b600082821c905092915050565b600061172260001984600802611704565b1980831691505092915050565b600061173b8383611711565b9150826002028217905092915050565b61175482610c74565b67ffffffffffffffff81111561176d5761176c610ec1565b5b611777825461142a565b6117828282856116be565b600060209050601f8311600181146117b557600084156117a3578287015190505b6117ad858261172f565b865550611815565b601f1984166117c38661159f565b60005b828110156117eb578489015182556001820191506020850194506020810190506117c6565b868310156118085784890151611804601f891682611711565b8355505b6001600288020188555050505b50505050505056fea26469706673582212204315673fa8102994179f5a6cf08ee349d1522c18a489f28b64549324903af17a64736f6c634300081c0033",
  "linkReferences": {},
  "deployedLinkReferences": {}
}